:0400000080310A2819
:100008007E148031833195237E10090080310C28BD
:1000180061308400843085004D30860000308700D0
:100028000C3084316D248031F701F801F901FA01AF
:1000380038308400003085001530843173247E10F8
:10004800200080312728B4010030A5000030A4002A
:100058000030A3000030A2004D3086000030870039
:1000680026308400003085000C30A00016001A00ED
:10007800A00B3A28B301B501B2018331E3238031E3
:10008800843150248031003A03191829200034089B
:10009800031D5028B401B40A4508A0000730A03653
:1000A800890B5328201C5B28B301B30A5C28B301D1
:1000B800B601B70120004608A0003608043E890AA8
:1000C8006628A036890B6528201C78280330A000F4
:1000D8002008F200360884313F248031263E86000D
:1000E80087018101810AC0280330A0002008F2009E
:1000F800360884313F248031263E860087018101FD
:100108004608A000360A8928A036890B8828201CB2
:10011800B7280330A0002008F200360884313F24B5
:100128008031023E263E8600870101080319B72860
:100138000330A0002008F200360884313F248031C3
:10014800013E263E860087018101810A0330A00016
:100158002008F200360884313F248031023E263ED2
:100168008600870181014608A000360ABC28A0360F
:10017800890BBB282018DB280330A0002008F200D8
:10018800360884313F248031013E263E86008701AF
:1001980081010330A0002008F200360884313F2492
:1001A8008031023E263E860087018101810A0130A6
:1001B800B6070030B73D3708803AA00080302002EB
:1001C800031DE82804303602031C5E282000450879
:1001D800A000350AF028A036890BEF28201C072933
:1001E800F030A0002008BE053208A0002008BE0498
:1001F800B2013508031D0329B501B50A07293503DE
:10020800031D0729B501EF30A0002008BE053508F9
:10021800A0000330A035FF3E031D0E292035A100A4
:100228002108BE0464001E2920003408031D1E296D
:10023800B301640020003303031DF529B601B7019B
:1002480020003708F3003608F20000308331052318
:10025800803172087304031D46293608223E860041
:1002680087010108031D46290330A0002008F20079
:10027800360884313F248031263E860087010108F4
:10028800031D55290330A0002008F20036088431E8
:100298003F248031013E263E86008701010803196C
:1002A8009D293708F3003608F2000130F4000030C9
:1002B800F500003082315C22803120003708F300DD
:1002C8003608F2000130F4000030F50001308231C8
:1002D8005C22803120003608223E86008701810199
:1002E800810A0330A0002008F200360884313F2438
:1002F8008031013E263E8600870181010330A0003F
:100308002008F200360884313F248031013E263E21
:10031800860087010108031DE5290130A000360A7F
:100328009629A035890B95292008A1002108B20437
:10033800E5293708F3003608F20001308331052338
:10034800803172037304031DE5293608223E8600B6
:10035800870101080319E5293708F3003608F20078
:100368000030F400F500003082315C22803120003A
:100378003708F3003608F2000030F400F5000130C9
:1003880082315C22803120003708F3003608F20001
:100398000030F400F500003082315C22803120000A
:1003A8003708F3003608F2000030F400F500013099
:1003B80082315C22803120003608223E8600870187
:1003C80081010130B6070030B73D3708803AA000F8
:1003D80080302002031DF229043036020318442815
:1003E80024290430F2000030F3000030F400F50056
:1003F800003082315C2280310430F2000030F3009A
:100408000030F400F500013082315C228031043084
:10041800F2000030F3000030F400F50000308231C3
:100428005C2280310430F2000030F3000030F40028
:10043800F500013082315C2280312000B601B7011D
:1004480003302000A0002008F200360884313F2441
:100458008031263E8600870181010330A0002008F4
:10046800F200360884313F248031013E263E860062
:10047800870181010330A0002008F200360884318A
:100488003F248031023E263E860087018101810A91
:100498000130B6070030B73D3708803AA0008030F9
:1004A8002002031D592A0430360203184428242A3E
:1004B800F60076080319972AAD2A741C662A2000CC
:1004C8008E16AD2A20008E12AD2A741C6E2A2000CA
:1004D8000E17AD2A20000E13AD2A741C762A2000B0
:1004E8008E17AD2A20008E13AD2A8F2A741C7F2AFE
:1004F80020008E16812A20008E12741C862A200065
:100508000E17882A20000E13741C8D2A20008E17BF
:100518008F2A20008E13741C942A20000D14AD2AF3
:1005280020000D10AD2A7308003A03199C2AAD2A41
:100538007208003A0319612A013A0319692A033A31
:100548000319712A013A0319792A073A03197A2AF1
:10055800AD2A7603031D0800EE2A741CB62A200073
:100568008D16080020008D120800741CBE2A200079
:100578000D16080020000D120800741CC62A200061
:100588008D15080020008D110800741CCE2A20004B
:100598000D15080020000D110800741CD62A200033
:1005A8008D16D82A20008D12741CDD2A20000D1605
:1005B800DF2A20000D12741CE42A20008D15E62A7B
:1005C80020008D11741CEB2A20000D150800200056
:1005D8000D1108007308003A0319F32A042B720856
:1005E800003A0319B12A013A0319B92A033A03193F
:1005F800C12A013A0319C92A073A0319D12A042B37
:100608000800F600760803193A2B4D2B03108C18B6
:1006180003140030093DF400F5017408F200750870
:10062800F300080003108C1903140030093DF4008E
:10063800F5017408F2007508F300080003108C1A1D
:1006480003140030093DF400F5017408F200750840
:10065800F300080003100C1B03140030093DF400DC
:10066800F5017408F2007508F30008007308003AF1
:1006780003193F2B4D2B7208003A03190A2B013A34
:100688000319162B033A0319222B013A03192E2BAF
:100698004D2B7603031D0800812B03100C1803143F
:1006A8000030093DF400F5017408F2007508F30004
:1006B800080003100C1903140030093DF400F5017B
:1006C8007408F2007508F300080003100C1A0314EC
:1006D8000030093DF400F5017408F2007508F300D4
:1006E800080003108C1B03140030093DF400F501C9
:1006F8007408F2007508F30008007308003A03193B
:10070800862B942B7208003A0319512B013A0319CE
:100718005D2B033A0319692B013A0319752B942BA6
:1007280008002000911DDE2B24001419B42B941A04
:10073800A42B4530F0007008F8001108FA01D72BF7
:100748001108F000780886008701700881000130E0
:10075800F0007008F8070130F0007008FA07D72B8E
:10076800141CC42B3D30F0007008F900110814085F
:100778000139F000150E01397004031DBB2BCE2B77
:10078800161BDC2B14080139F000150E0139700412
:10079800031DC62B790886008701010891000130E6
:1007A800F0007008F9072000911124001516DE2BBF
:1007B800200091112000921D080092110800F030CD
:1007C8002100990023008C018D01FF3021008C004D
:1007D8008D0124008D0121000E108E100E118E1235
:1007E8000E138E130430F2000030F3000030F400D2
:1007F800F500003082315C2283310430F200003091
:10080800F3000030F400F500013082315C228331BE
:100818000430F2000030F3000030F400F50000303E
:1008280082315C2283310430F2000030F300003062
:10083800F400F500013082315C228331133021004D
:1008480097001130843129240800F2002400940113
:1008580026309500161472359200FE309300210060
:10086800911592150B178B172000911192112100E9
:100878008E150E160800F500F401751C472C720839
:10088800F3007308F4070310F20D0310F50C750854
:10089800031D412C74080800F201F3017A080319BA
:1008A8005F2C2400941D141E5F2C7A08F200F301BB
:1008B800F21BF303FA017208080000340034003414
:1008C800003400340034003400340034013401347E
:1008D8000134FE0012001E00FE0B6E2C0034640072
:0A08E80080010131890B742C0034EB
:020000040001F9
:04000E00DC3FFF1FB5
:00000001FF
