:0400000080310A2819
:100008007E148031843138247E10090080310C2818
:100018000430840085308500553086000030870024
:100028000C30853110258031F701F801F901FA010A
:100038003C308400003085001930853116257E104B
:10004800200080312728B8010030A5000030A40026
:100058000030A3000030A2000030B5000030B4002A
:100068000030B3000030B200553086000030870001
:1000780026308400003085000C30A00016001A00DD
:10008800A00B4228B601B901B7018431862480311A
:100098008431F3248031003A0319202920003808DC
:1000A800031D5828B801B80A4D08A0000730A0362B
:1000B800890B5B28201C6328B601B60A6428B601A0
:1000C800BA01BB0120004E08A0003A08043E890A84
:1000D8006E28A036890B6D28201C80280330A000CC
:1000E8002008F2003A088431E2248031263E860056
:1000F80087018101810AC8280330A0002008F20086
:100108003A088431E2248031263E86008701810145
:100118004E08A0003A0A9128A036890B9028201C86
:10012800BF280330A0002008F2003A088431E224F6
:100138008031023E263E8600870101080319BF2848
:100148000330A0002008F2003A088431E22480310C
:10015800013E263E860087018101810A0330A00006
:100168002008F2003A088431E2248031023E263E1B
:100178008600870181014E08A0003A0AC428A036EB
:10018800890BC3282018E3280330A0002008F200B8
:100198003A088431E2248031013E263E86008701F8
:1001A80081010330A0002008F2003A088431E224DB
:1001B8008031023E263E860087018101810A013096
:1001C800BA070030BB3D3B08803AA00080302002CF
:1001D800031DF02804303A02031C662820004D084D
:1001E800A000390AF828A036890BF728201C0F2907
:1001F800F030A0002008C6053708A0002008C60473
:10020800B7013908031D0B29B901B90A0F293903A8
:10021800031D0F29B901EF30A0002008C6053908D1
:10022800A0000330A035FF3E031D16292035A1008C
:100238002108C6046400262920003808031D262941
:10024800B601640020003603031D2C2ABA01BB0145
:1002580020003B08F3003A08F20000308331A8235D
:10026800803172087304031D4E293A08223E860025
:1002780087010108031D4E290330A0002008F20061
:100288003A088431E2248031263E8600870101083D
:10029800031D5D290330A0002008F2003A088431CC
:1002A800E2248031013E263E8600870101080319B9
:1002B800AA293B08F3003A08F2000130F4000030A4
:1002C800F50000308231FF22803120003B08F30026
:1002D8003A08F2000130F4000030F50001308231B4
:1002E800FF22803120003A08223E860087018101E2
:1002F800810A0330A0002008F2003A088431E22481
:100308008031013E263E8600870181013A08323E4F
:100318008600870181010330A0002008F2003A0816
:100328008431E2248031013E263E8600870101089F
:10033800031DFF290130A0003A0AA329A035890B23
:10034800A2292008A1002108B704FF293B08F300CF
:100358003A08F20001308331A8238031720873040F
:10036800031DFF293A08223E860087010108031968
:10037800FF293B08F3003A08F20000308331A82334
:10038800803172037304031DFF293B08F3003A0808
:10039800F2000030F400F50000308231FF22803195
:1003A80020003B08F3003A08F2000030F400F500A2
:1003B80001308231FF22803120003B08F3003A08E7
:1003C800F2000030F400F50000308231FF22803165
:1003D80020003B08F3003A08F2000030F400F50072
:1003E80001308231FF22803120003A08323E8600F7
:1003F80087018101810A3B08F3003A08F2000130C5
:100408008331A823803172037304031D1C2A3A0820
:10041800323E86008701010803191C2A3A08323E39
:100428008600870181013A08223E86008701810102
:100438000130BA070030BB3D3B08803AA00080304D
:100448002002031D292A04303A0203189F2A2C2966
:100458000430F2000030F3000030F400F500003002
:100468008231FF2280310430F2000030F300003086
:10047800F400F50001308231FF2280310430F200AF
:100488000030F3000030F400F50000308231FF2224
:1004980080310430F2000030F3000030F400F50041
:1004A80001308231FF2280312000BA01BB010330C4
:1004B8002000A0002008F2003A088431E2248031AC
:1004C800263E8600870181010330A0002008F20043
:1004D8003A088431E2248031013E263E86008701B5
:1004E80081010330A0002008F2003A088431E22498
:1004F8008031023E263E860087018101810A3A0842
:10050800323E8600870181013A08223E8600870133
:1005180081010130BA070030BB3D3B08803AA0009A
:1005280080302002031D9A2A04303A02031C5B2AF9
:100538002000B701B9012000BA01BB0120003B0827
:10054800F3003A08F20000308331A82380317208A2
:100558007304031DBB2A0130A0003A0AB42AA0354F
:10056800890BB32A2008A1002108C504C72A013035
:10057800A0003A0AC02AA035890BBF2A2008FF3AF2
:10058800A1002108C5053B08F3003A08F200013034
:100598008331A823803172087304031DE12A0130D6
:1005A800A0003A08043E890ADA2AA035890BD92A1C
:1005B8002008A1002108C504EF2A0130A0003A084C
:1005C800043E890AE82AA035890BE72A2008FF3A61
:1005D800A1002108C5050130BA070030BB3D3B0822
:1005E800803AA00080302002031DFC2A04303A0221
:1005F80003184C28A22AF600760803193A2B502B28
:10060800741C092B22008E16502B22008E12502BA0
:10061800741C112B22000E17502B22000E13502B86
:10062800741C192B22008E17502B22008E13502B6E
:10063800322B741C222B22008E16242B22008E12A1
:10064800741C292B22000E172B2B22000E13741C4E
:10065800302B22008E17322B22008E13741C372B5E
:1006680022000D14502B22000D10502B7308003A55
:1006780003193F2B502B7208003A0319042B013A37
:1006880003190C2B033A0319142B013A03191C2BD9
:10069800073A03191D2B502B7603031D0800912BD5
:1006A800741C592B22008D16080022008D12080098
:1006B800741C612B22000D16080022000D12080080
:1006C800741C692B22008D15080022008D1108006A
:1006D800741C712B22000D15080022000D11080052
:1006E800741C792B22008D167B2B22008D12741C12
:1006F800802B22000D16822B22000D12741C872BD2
:1007080022008D15892B22008D11741C8E2B22003E
:100718000D15080022000D1108007308003A03198E
:10072800962BA72B7208003A0319542B013A031988
:100738005C2B033A0319642B013A03196C2B073A13
:100748000319742BA72B0800F60076080319DD2B74
:10075800F02B03108C1803140030093DF400F50148
:100768007408F2007508F300080003108C190314CC
:100778000030093DF400F5017408F2007508F30033
:10078800080003108C1A03140030093DF400F50129
:100798007408F2007508F300080003100C1B03141A
:1007A8000030093DF400F5017408F2007508F30003
:1007B80008007308003A0319E22BF02B7208003A7C
:1007C8000319AD2B013A0319B92B033A0319C52BA9
:1007D800013A0319D12BF02B7603031D0800242CB2
:1007E80003100C1803140030093DF400F5017408D7
:1007F800F2007508F300080003100C190314003008
:10080800093DF400F5017408F2007508F3000800CA
:1008180003100C1A03140030093DF400F5017408A4
:10082800F2007508F300080003108C1B0314003055
:10083800093DF400F5017408F2007508F30008009A
:100848007308003A0319292C372C7208003A031947
:10085800F42B013A0319002C033A03190C2C013A22
:100868000319182C372C08002000911D812C240016
:100878001419572C941A472C4D30F0007008F800C2
:100888001108FA017A2C1108F0007808860087010F
:10089800700881000130F0007008F8070130F0009E
:1008A8007008FA077A2C141C672C4530F000700881
:1008B800F900110814080139F000150E0139700407
:1008C800031D5E2C712C161B7F2C14080139F000B7
:1008D800150E01397004031D692C790886008701FB
:1008E800010891000130F0007008F907200091110B
:1008F80024001516812C200091112000921D08005B
:1009080092110800F0302100990023008C018D011C
:10091800FF3021008C008D0124008D0121000E1074
:100928008E100E118E120E138E130430F20000304A
:10093800F3000030F400F50000308231FF228431EA
:100948000430F2000030F3000030F400F50001300C
:100958008231FF2284310430F2000030F30000308D
:10096800F400F50000308231FF2284310430F200B7
:100978000030F3000030F400F50001308231FF222E
:10098800843113302100970011308431CC240800C1
:10099800F200240094012630950016147235920056
:1009A800FE3093002100911592150B178B1720002C
:1009B8009111921121008E150E160800F500F40110
:1009C800751CEA2C7208F3007308F4070310F20D83
:1009D8000310F50C7508031DE42C74080800F201D7
:1009E800F3017A080319022D2400941D141E022D08
:1009F8007A08F200F301F21BF303FA017208080007
:100A0800003400340034003400340034003400343E
:100A18000034013401340134FE0012001E00FE0BC4
:100A2800112D0034640080010131890B172D003429
:020000040001F9
:04000E00DC3FFF1FB5
:00000001FF
