:0400000080310A2819
:100008007E148031803181207E10090080310C28D7
:10001800F001F101F201F301F40120308400003015
:1000280085001030813119217E10200080311C2874
:10003800B001B101B201B301B4018031CF208031E8
:10004800813108218031003A031932282000300814
:10005800031D3028B001B00A64003628200030089B
:100068000319640020008C1841283108031D412819
:100078008E168D16B101B10A49280C1C4928310881
:10008800031949288E128D12B1018C195328320890
:10009800031D53280E170D16B201B20A5B280C1D5A
:1000A8005B28320803195B280E130D12B2018C1A53
:1000B80065283308031D65288E178D15B301B30A0B
:1000C8006D280C1E6D28330803196D288E138D11A9
:1000D800B3010C1B77283408031D77280D140D1560
:1000E800B401B40A24288C1F2428340803192428AE
:1000F8000D100D110D10B40124282000911DCA28DF
:1001080024001419A028941A90282830F50075089E
:10011800F2001108F401C3281108F50072088600DE
:100128008701750881000130F5007508F207013074
:10013800F5007508F407C328141CB0282030F50012
:100148007508F300110814080139F500150E013976
:100158007504031DA728BA28161BC82814080139D6
:10016800F500150E01397504031DB22873088600C1
:100178008701010891000130F5007508F307200098
:10018800911124001516CA28200091112000921DF3
:10019800080092110800F0302100990023008C011A
:1001A8008D01FF3021008C008D0124008D0121007C
:1001B8000E108E100E118E120E138E1320008E123A
:1001C8008D120E130D128E138D110D100D1113308B
:1001D8002100970010308031F2200800F700240039
:1001E800940126309500161477359200FE3093005E
:1001F8002100911592150B178B1720009111921160
:1002080021008E150E160800F701F801740803196D
:1002180017292400941D141E17297408F700F801E3
:10022800F71BF803F4017708080064008001013126
:06023800890B1A290034B5
:020000040001F9
:04000E00C43FFF1FCD
:00000001FF
